:020000040800F2
:1000000000000220110A00080D0A00088984000877
:100010000D0A00080D0A00080D0A00080000000083
:100020000000000000000000000000000D0A0008B1
:100030000D0A0008000000000D0A00080D840008E9
:100040000D0A00080D0A00080D0A00080D0A000834
:100050000D0A00080D0A00080D0A00080D0A000824
:100060000D0A00080D0A00080D0A0008D96F0008E3
:10007000E56F0008395D0008F16F0008FD6F0008AA
:1000800011630108056500080D0A00080D0A000843
:100090000D0A00080D0A00080D0A00080D0A0008E4
:1000A0000D0A00080D0A00080D0A00080D0A0008D4
:1000B000D5560108E1560108ED56010839650008DA
:1000C0000D0A0008456500080D0A0008217D00089A
:1000D0002D7D00084561010875610108A9610108CD
:1000E0000D0A00080D0A0008000000000D0A0008B3
:1000F0000D0A00080D0A00080D0A00080D0A000884
:100100000D0A000831750008F9560108397D00080C
:10011000DD610108116201080D0A00080D0A0008DE
:100120000D0A00080D0A00085D7D0008917D000899
:10013000456301080D0A00080D0A00080D0A0008B1
:1001400000000000000000000000000000000000AF
:100150000D0A00080D0A00080D0A00084562010892
:10016000516500080D0A00081D840008418400083C
:100170000D0A0008658400080D0A00080D0A000831
:100180000D0A00080D0A000879620108A962010839
:10019000457D0008517D00080D0A00080D0A000881
:1001A0000D0A00080D0A00080D0A00080D0A0008D3
:1001B000F96C00080D0A00080D0A00080D0A000875
:1001C0000D0A00080D0A00080D0A00080D0A0008B3
:1001D0000D0A00080D0A00080D0A00080D0A0008A3
:1001E0000D0A00080D0A00080D0A00080D0A000893
:1001F0000D0A00080D0A00080D0A00080D0A000883
:100200000D0A00080D0A00080D0A00080D0A000872
:100210000D0A00080D0A00080D0A00080D0A000862
:100220000D0A00080D0A00080D0A00080000000071
:100230000D0A00080D0A0008000000000D0A000861
:100240000D0A00080D0A00080D0A00080D0A000832
:100250000D0A00080D0A00080D0A00080D0A000822
:100260000D0A00080D0A00080D0A00080D0A000812
:100270000D0A00080D0A0008DD62010800000000F8
:100280000D0A00080D0A00080D0A00080000000011
:08029000000000000D0A000847
:1002A00010B5054C237833B9044B13B10448AFF3B0
:1002B00000800123237010BDF8030024000000001B
:1002C00074C7010808B5034B1BB103490348AFF3DA
:1002D000008008BD00000000FC03002474C7010872
:1002E000034613F8012B002AFBD1181A0138704776
:1002F00001F0FF01102A2BDB10F0070F08D010F8D7
:10030000013B013A8B422DD010F0070F42B3F6D1DA
:10031000F0B441EA012141EA014122F007047FF0F3
:1003200000070023F0E80256083C85EA010586EA4A
:10033000010685FA47F5A3FA87F586FA47F6A5FA86
:1003400087F68EB9EED1F0BC01F0FF0102F0070292
:1003500032B110F8013B013A83EA010313B1F8D13D
:100360000020704701387047002D06BF354603381E
:10037000073815F0010F07D1013015F4807F02BF57
:10038000013015F4C03F0130F0BC0138704700BFA8
:1003900081F0004102E000BF83F0004330B54FEA36
:1003A00041044FEA430594EA050F08BF90EA020FA3
:1003B0001FBF54EA000C55EA020C7FEA645C7FEA36
:1003C000655C00F0E2804FEA5454D4EB5555B8BF59
:1003D0006D420CDD2C4480EA020281EA030382EACA
:1003E000000083EA010180EA020281EA0303362D5C
:1003F00088BF30BD11F0004F4FEA01314FF4801C2F
:100400004CEA113102D0404261EB410113F0004F40
:100410004FEA03334CEA133302D0524263EB4303F7
:1004200094EA050F00F0A780A4F10104D5F1200E95
:100430000DDB02FA0EFC22FA05F2801841F10001F0
:1004400003FA0EF2801843FA05F359410EE0A5F1C4
:1004500020050EF1200E012A03FA0EFC28BF4CF0F5
:10046000020C43FA05F3C01851EBE37101F00045AB
:1004700007D54FF0000EDCF1000C7EEB00006EEBB8
:100480000101B1F5801F1BD3B1F5001F0CD3490842
:100490005FEA30004FEA3C0C04F101044FEA445299
:1004A00012F5800F80F09A80BCF1004F08BF5FEA20
:1004B000500C50F1000041EB045141EA050130BD00
:1004C0005FEA4C0C404141EB0101013C28BFB1F512
:1004D000801FE9D291F0000F04BF01460020B1FA5D
:1004E00081F308BF2033A3F10B03B3F120020CDA30
:1004F0000C3208DD02F1140CC2F10C0201FA0CF00E
:1005000021FA02F10CE002F11402D8BFC2F1200C72
:1005100001FA02F120FA0CFCDCBF41EA0C01904028
:10052000E41AA2BF01EB0451294330BD6FEA040471
:100530001F3C1CDA0C340EDC04F11404C4F120025C
:1005400020FA04F001FA02F340EA030021FA04F36E
:1005500045EA030130BDC4F10C04C4F1200220FAC5
:1005600002F001FA04F340EA0300294630BD21FA03
:1005700004F0294630BD94F0000F83F4801306BFC9
:1005800081F480110134013D4EE77FEA645C18BFBD
:100590007FEA655C29D094EA050F08BF90EA020F54
:1005A00005D054EA000C04BF1946104630BD91EA4C
:1005B000030F1EBF0021002030BD5FEA545C05D14F
:1005C0004000494128BF41F0004130BD14F580048E
:1005D0003CBF01F5801130BD01F0004545F0FE4102
:1005E00041F470014FF0000030BD7FEA645C1ABF37
:1005F000194610467FEA655C1CBF0B46024650EA6E
:10060000013406BF52EA033591EA030F41F4002199
:1006100030BD00BF90F0000F04BF0021704730B51F
:100620004FF4806404F132044FF000054FF00001F4
:1006300050E700BF90F0000F04BF0021704730B5B5
:100640004FF4806404F1320410F0004548BF40428A
:100650004FF000013EE700BF42004FEAE2014FEADF
:1006600031014FEA02701FBF12F07F4393F07F4FBA
:1006700081F06051704732F07F4208BF704793F0BD
:100680007F4F04BF41F40021704730B54FF46074D0
:1006900001F0004521F000411CE700BF50EA0102D3
:1006A00008BF704730B54FF000050AE050EA01027C
:1006B00008BF704730B511F0004502D5404261EBEC
:1006C00041014FF4806404F132045FEA915C3FF42D
:1006D000D8AE4FF003025FEADC0C18BF03325FEACA
:1006E000DC0C18BF033202EBDC02C2F1200300FA7B
:1006F00003FC20FA02F001FA03FE40EA0E0021FAA0
:1007000002F11444BDE600BF53B94AB9002908BF3D
:1007100000281CBF4FF0FF314FF0FF3000F074B9DC
:10072000ADF1080C6DE904CE00F006F8DDF804E048
:10073000DDE9022304B070472DE9F047089D044627
:100740008E46002B4DD18A42944669D9B2FA82F284
:1007500052B101FA02F3C2F1200120FA01F10CFAC0
:1007600002FC41EA030E94404FEA1C48210CBEFBF8
:10077000F8F61FFA8CF708FB16E341EA034306FB81
:1007800007F199420AD91CEB030306F1FF3080F010
:100790001F81994240F21C81023E63445B1AA4B25D
:1007A000B3FBF8F008FB103344EA034400FB07F7FF
:1007B000A7420AD91CEB040400F1FF3380F00A8140
:1007C000A74240F207816444023840EA0640E41B35
:1007D00000261DB1D4400023C5E900433146BDE8E1
:1007E000F0878B4209D9002D00F0EF800026C5E983
:1007F000000130463146BDE8F087B3FA83F6002E9B
:100800004AD18B4202D3824200F2F980841A61EB12
:10081000030301209E46002DE0D0C5E9004EDDE730
:1008200002B9FFDEB2FA82F2002A40F09280A1EB18
:100830000C014FEA1C471FFA8CFE0126200CB1FB6D
:10084000F7F307FB131140EA01410EFB03F0884266
:1008500008D91CEB010103F1FF3802D2884200F2F3
:10086000CB804346091AA4B2B1FBF7F007FB101185
:1008700044EA01440EFB00FEA64508D91CEB040423
:1008800000F1FF3102D2A64500F2BB800846A4EB7E
:100890000E0440EA03409CE7C6F12007B34022FA69
:1008A00007FC4CEA030C20FA07F401FA06F31C4398
:1008B000F9404FEA1C4900FA06F3B1FBF9F8200CA5
:1008C0001FFA8CFE09FB181140EA014108FB0EF0EB
:1008D000884202FA06F20BD91CEB010108F1FF3A3B
:1008E00080F08880884240F28580A8F10208614447
:1008F000091AA4B2B1FBF9F009FB101144EA014155
:1009000000FB0EFE8E4508D91CEB010100F1FF34FF
:100910006CD28E456AD90238614440EA0840A0FB97
:100920000294A1EB0E01A142C846A64656D353D06D
:100930005DB1B3EB080261EB0E0101FA07F722FA91
:1009400006F3F1401F43C5E9007100263146BDE8BA
:10095000F087C2F12003D8400CFA02FC21FA03F31D
:10096000914001434FEA1C471FFA8CFEB3FBF7F09E
:1009700007FB10360B0C43EA064300FB0EF69E42C3
:1009800004FA02F408D91CEB030300F1FF382FD25C
:100990009E422DD9023863449B1B89B2B3FBF7F604
:1009A00007FB163341EA034106FB0EF38B4208D9DD
:1009B0001CEB010106F1FF3816D28B4214D9023E1E
:1009C0006144C91A46EA004638E72E46284605E73C
:1009D0000646E3E61846F8E64B45A9D2B9EB02080D
:1009E00064EB0C0E0138A3E74646EAE7204694E79D
:1009F0004046D1E7D0467BE7023B614432E73046D0
:100A000009E76444023842E7704700BFFEE7000090
:100A100009480A4A0A49121A18F0E0F809480A4A2D
:100A20000021121A18F0E8F807F05EFF18F09AF8A3
:100A300002F0B0FAFEE700BF00000024F803002433
:100A4000A8C70108F803002410ED0024034B1A186E
:100A500003EB80035B68107B5B681847200600246B
:100A6000064B1A5C42B901221A541A1803EB800390
:100A7000107B5B681B681847002070472006002425
:100A800030B4054C251804EB800460688468287B2A
:100A9000A44630BC604700BF2006002430B4054C9B
:100AA000251804EB80046068C468287BA44630BC29
:100AB000604700BF20060024054B10B41C1803EB50
:100AC00080035B68207B1B695DF8044B184700BFFF
:100AD00020060024006870470B0A017043700B0C5D
:100AE000090E8370C1707047024400F8011B9042E8
:100AF000FBD1704783690239023B8B4283BF438934
:100B0000C06A01FB0300002070470268490A836A3B
:100B100052890433B1FBF2F1186830B1814202D33B
:100B2000091A0833F8E7586808447047C2F30723E6
:100B30008A76CB760378032B01BF120C0A75120A52
:100B40004A75704700F10B010022D30143EA5203BA
:100B500010F8012B52FA83F38842DAB2F5D110462D
:100B600070470368014610B553B11846024610F8A5
:100B7000014B1F2C10D93A2CF8D1581C824202D0BC
:100B80004FF0FF3007E01B78303BD8B20128F7D890
:100B9000013218460A6010BD0020FCE738B50D464A
:100BA000044618B9092000232B6038BD0368002BC8
:100BB000F8D01A78002AF5D08188DA889142F1D1EC
:100BC0005878FFF743FF10F00100EBD12368EBE703
:100BD0002DE9F0410025D0F8008006460C468D75C1
:100BE0008369002B59D0C36A01330AD001F116077B
:100BF000D8F80C3033F81500002850D125440023D4
:100C0000AB75F1690023A57D2E274E1E184616F8F8
:100C1000012F0130202A26D0052A08BFE522092805
:100C200007D104EB030C0DB98CF8167001338CF866
:100C3000097004EB030C8CF809209DB9A2F1410E58
:100C4000BEF1190F0CD8082891F80C808CBF4FF01A
:100C5000100E4FF0080E18EA0E0F1CBF2032D2B251
:100C60008CF8162001330B28D1D12DB9E2189575D7
:100C70000A7B002A08BF00232344002201F11C0044
:100C80005A72CB7A2372FFF725FF206001F116001C
:100C9000FFF720FFE080000CA080BDE8F08100217C
:100CA00001F060FB30B10135B5F5807F02D007F867
:100CB000010B9DE70025A1E701380A4411F8013B2B
:100CC000914200F8013FF9D170472DE9F041066BE0
:100CD00000F1340804460123324641464078FFF7CC
:100CE000DDFE0546A8B9636AE269F31AE070934233
:100CF00002D2A778012F02D82846BDE8F081E36927
:100D000041466078013F1E4401233246FFF7C6FE8C
:100D1000F0E70125F0E7C3780BB1FFF7D6BF18461F
:100D2000704738B5036B05460C468B4210D0FFF771
:100D3000F2FF60B92246012305F134016878FFF71C
:100D40009FFE00281CBF4FF0FF3401202C6338BDEC
:100D50000020FCE7002310B5C3704FF0FF330446BA
:100D60000363FFF7DEFF034618BBB4F832124AF6FE
:100D7000552291421FD194F83420E92A05D0626BA4
:100D80000F4902F0FF128A4217D104F16A000D4A9E
:100D9000FFF7A0FE20F07F40904208D002F14C52B5
:100DA00004F18600FFF796FE904218BF0223184612
:100DB00010BD0423FBE70323F9E70223F7E700BF95
:100DC000EB009000464154002DE9FF4100230F46FF
:100DD00015460B60FFF7C5FE061EC0F212818C4B54
:100DE00053F82640002C00F00E813C6005F0FE0513
:100DF00023786BB16078FFF729FEC10708D41DB1D5
:100E000010F0040500D00A25284604B0BDE8F081A2
:100E10000023F0B223706070FFF722FEC20700F1DA
:100E2000F4800DB14307EED400212046FFF792FF76
:100E3000022840F0CB806F4604F5FD7304F23A219E
:100E40003A4613F8040C10B11846FFF743FE10336E
:100E500042F8040B8B42F4D1002557F8046B002EA6
:100E600000F0AB8031462046FFF774FF012800F206
:100E7000A580B4F83F30B3F5007F40F0AB80B4F804
:100E80004A1021B904F15800FFF724FE014694F8F6
:100E90004430E1615A1EA370012A00F29B8094F84D
:100EA00041506581002D00F095806A1E2A4240F075
:100EB0009180B4F8458018F00F0FA4F8088040F036
:100EC0008980B4F8470018B904F15400FFF702FE16
:100ED000B4F84270002F7DD001FB03FE07EB181C15
:100EE000F444604576D3A0EB0C02AA42B2FBF5F3C2
:100EF00070D34FF6F572934270D840F6F575AB4259
:100F00008CBF02250125023337440CEB0602032D6A
:100F1000A36126626762E26262D1B4F85E2052EA9F
:100F2000080257D19B0004F16000FFF7D3FDA062D7
:100F300003F2FF13B1EB532F4CD34FF0FF33032DCC
:100F4000C4E904334FF0800323712BD1B4F864302B
:100F5000012B27D1711C2046FFF7E3FE10BBB4F82C
:100F600032224AF6552320719A421BD1294B04F1B3
:100F70003400FFF7AFFD984214D103F1FF5304F59D
:100F80000670FFF7A7FD03F500532033984209D1FF
:100F900004F50770FFF79EFD606104F50870FFF728
:100FA00099FD20611C4A25700025138801339BB2EE
:100FB0001380E380194BE36026E703200135042DFD
:100FC0007FF44BAF042805D101251DE70428FBD091
:100FD000012801D90D2517E700264AE7032592E7E6
:100FE000B8F1000FF6D0022D4FEA430277441ABF42
:100FF000D21803F001031346A76218BF03EB520394
:1010000096E70B2500E70C25FEE60325FCE600BF6E
:1010100014040024525261411C0400241E040024C4
:1010200001292DE9F04706460C46174674D9836915
:101030008B4271D90378022B40D0032B51D0012B66
:101040006AD101EB5108416A01EB5821FFF769FEB3
:10105000054640BB14F0010406F1340908F1010A09
:10106000C8F3080808BFFBB230461FBF19F80830A4
:1010700003F00F023B0103F0F00318BF134309F81C
:1010800008300123716AF37001EB5A21FFF749FE22
:10109000054640B9CAF3080A44B1C7F3071709F86F
:1010A0000A700123F3702846BDE8F08719F80A306A
:1010B000C7F3032723F00F031F43F0E7416A01EB57
:1010C0001421FFF72EFE05460028ECD1640006F13E
:1010D000340304F4FF741F551819C7F3072747702A
:1010E000DFE7416A01EBD411FFF71BFE054600283C
:1010F000D9D1A40006F1340327F0704704F4FE743C
:101100001C442046FFF7E6FC00F0704047EA00016F
:101110002046FFF7E1FCC4E70225C4E7F8B5044622
:10112000FFF7F9FD0546002842D12378032B37D17C
:101130002779012F34D104F13406552301464FF4A9
:1011400000723046FFF7D0FC84F83232AA234122E5
:10115000722104F5077084F83332522384F8372063
:1011600084F8343084F83530612384F8181284F818
:10117000363084F81B3284F8191284F81A22616917
:10118000FFF7AAFC216904F50870FFF7A5FC226AA5
:101190003B463146013260782263FFF77FFC2571C0
:1011A000002260781146FFF787FC003818BF012045
:1011B000F8BD03284B8B04BF8A8A43EA02431846D2
:1011C00070470129F8B506460C464ED98369994205
:1011D0004BD20378022B29D0032B34D0012B44D1DE
:1011E00001EB5105416A01EB5521FFF79AFD10B162
:1011F0004FF0FF30F8BD6F1CC5F30805716A30462B
:10120000354401EB572195F83450FFF78AFD00284B
:10121000EED1C7F30807E3073E4496F8340045EAE9
:1012200000204CBF0009C0F30B00E3E7416A01EB6B
:101230001421FFF776FD0028DAD1640004F4FF746E
:101240002644B08ED6E7416A01EBD411FFF769FD61
:101250000028CDD1A40006F1340004F4FE7420442B
:10126000FFF738FC20F07040C4E70120C2E773B5F7
:101270000C46064611460568012C2CD9AB69A342E1
:1012800029D92AB14FF0FF322846FFF7C9FE40B9ED
:10129000214630680194FFF794FF0199044610B984
:1012A000002002B070BD012815D0431C15D00022CB
:1012B0002846FFF7B5FE0028F3D1D5E90532911E87
:1012C0008B4205D201336B612B7943F001032B7103
:1012D000A242DDD8E4E70220E3E70120E1E72DE9BF
:1012E000F041804605680F4671B92E69EEB1AB69D1
:1012F000B34298BF012634460134AB69A34217D8E4
:10130000012E14D8002406E02846FFF75AFF0128D2
:10131000044603D801242046BDE8F081431C30D0A8
:10132000AB698342F7D83E46E5E70126E3E70224AE
:101330002146D8F80000FFF744FF30B10128E9D07A
:1013400001301ED0B442D7D1DCE74FF0FF32214646
:101350002846FFF765FE90B957B92C61D5E90532EB
:10136000023A934210D92B7943F001032B71D2E753
:10137000224639462846FFF753FE0028EDD00128C3
:10138000C8D14FF0FF34C6E7013B6B61EBE7B1F525
:10139000001FF8B506460C4601D30220F8BDCA0668
:1013A000FBD1826805680161CAB92B78022B01D98B
:1013B000AB6A9BB92B89B3EB541FEED9AB6AB3610F
:1013C000B3697261002BE8D003EB54233435C4F3C6
:1013D00008040020B3612C44F461DFE71A466F89EA
:1013E0007F02BC42114604D22846FFF783FBB0615E
:1013F000E6E73068FFF7E5FE431C024606D0012809
:10140000CBD9AB698342C8D9E41BEAE70120C5E721
:1014100003692DE9F04703F12008836905468A46F0
:1014200093B1B8F5001F0FD2C8F308090468B9F1E9
:10143000000F4DD101334169836139B92389B3EB81
:10144000581F45D80023AB6104200BE06789013F9A
:1014500017EA58273CD12046FFF7B3FE012806467D
:1014600002D80220BDE8F087421C01D10120F9E733
:10147000A369834226D8BAF1000FE3D069692846F0
:10148000FFF72DFF0646002835D00128E9D0431C80
:10149000ECD02046FFF73FFC01460028E6D104F1DE
:1014A00034004FF400724FF0010AFFF71DFB314684
:1014B0002046FFF71FFB206363899F420FD3236BF6
:1014C000DB1B2363314620466E61FFF713FBA861E7
:1014D00034340020C5F810804C44EC61C2E720464B
:1014E00084F803A0FFF7F1FB0028BFD1236B01377D
:1014F00001332363E0E70720B4E700002DE9F04F54
:10150000002185B00446D0F800B0FFF740FF064642
:10151000002840F098804FF0FF084FF0FF3AC14696
:10152000C4F82CA0A1695846FFF7FBFB064600282B
:1015300040F08980E5692F78002F00F08880EA7AF2
:10154000E52F02F03F03A37103D0100704D50F2B42
:1015500004D0C4F82CA050E00F2B56D194F82B30B7
:10156000590640D47A0646D5236907F0BF0795F897
:101570000D80E3626B7B43453FD16B8B002B3CD1ED
:101580002E780122DBF80C3006F03F06DFF8C89019
:1015900000930D23013E5E4319F8013BEB5A7AB3E9
:1015A000FE2E2AD81846039300F0FAFE009B711C09
:1015B000029033F81600019100F0F2FE029A824286
:1015C0001BD1039B01991A460E46224B9945E3D144
:1015D0002B785B0604D51AB1009B33F8163063B93B
:1015E000013F5FFA87F900212046FFF711FF064609
:1015F000002897D027E0B945BCD04FF0FF09F2E7AB
:101600004FF6FF718B42E0D0F7E7B9F1000F04D13C
:101610002846FFF797FA404515D094F82B6016F04E
:10162000010696D104F1200205F10B0115F8013BEA
:1016300012F8010B8D42A3EB000302D0002BF5D072
:1016400087E7002B85D1304605B0BDE8F08F042632
:10165000F9E700BF6B9701085E9701082DE9F04F8D
:1016600090F82B5089B0044615F0A00540F08E800C
:101670000668F26832F81530002B66D104F12007B5
:101680000C2205A83946FFF717FB9DF81F30DB0732
:1016900040F1858040234FF0010ADFF8348284F85E
:1016A0002B300B2205A93846D6F80C90FFF704FB27
:1016B000BAF1050F59D9A9F10201534631F8022FA9
:1016C000002A44D10DF11300072203F00F0C013A58
:1016D0000CF13001392988BF0CF137010F2B00F8CC
:1016E00001194FEA131142D802F120037E216B4405
:1016F00003F8141C394600239A4205D011F8010B57
:1017000003F1010C202834D104F11F00072A03F152
:10171000010397BF02F1200120210132694498BFE3
:1017200011F8141C072BC154F0D92046FFF7E6FE30
:10173000814670BB0AF1010ABAF1640FB1D14FF0D2
:101740000709484609B0BDE8F08F013592E710203F
:1017500002F0010C52080CEB430313F4803F18BF56
:1017600083EA08030138F3D1A8E75346AAE70B46FA
:10177000ABE76346C0E7804601212046FFF748FEFD
:10178000814608B3B9F1040FD9D0DAE74FF0060962
:10179000D7E70428D5D19DF81F3084F82B309DF869
:1017A0001F3000212046D4F800A09B0745BF0C3510
:1017B0000D230125B5FBF3F548BF0135FFF7E7FD24
:1017C00081460028DED18046A1695046FFF7A9FA7C
:1017D00081460028D6D1E3691B78E52B01D0002B88
:1017E000C9D108F101084545C6D1013D55D021694F
:1017F0002046A1EB4511FFF7CAFD81460028A0D184
:101800004FF6FF783846FFF79DF90190A169304601
:10181000FFF787FA8146002893D1E369E9B2019A7C
:101820004FF00D0CD6F80CE05A734FF00F02DFF8B2
:10183000A4A0DA724A1E18730CFB02F28446987652
:10184000D87640451AF8019B0CF1010C18BF3EF800
:10185000120003EB090B18BF013203F809004FEA2D
:101860001029002808BF4046BCF10D0F8BF80190ED
:10187000E7D1404502D03EF812200AB941F04001BC
:101880001970012300212046F370FFF7C1FD814646
:1018900000287FF456AF013DB8D1A1693046FFF76B
:1018A00040FA814600287FF44CAF01462022E069CF
:1018B000FFF71AF90B223946E069FFF7FDF994F8B2
:1018C0002B30E26903F0180313730123F37038E738
:1018D000211001005E9701082DE9F843FF27064615
:1018E000D0F8008004253C464FF6FF79B16911B964
:1018F000002D5FD04FE04046FFF713FA0546002861
:1019000049D1F0690378002B5CD0C27AE52B02F054
:101910003F02B27144D02E2B42D022F02001082980
:101920003ED00F2A41D1590638D503F0BF043369A0
:10193000477BF362437BBB4232D1428B82BB03784D
:101940000D21D8F80C504FF0010E23F04003DFF8C2
:1019500078C0013B4B431CF8011B415ABEF1000FFC
:1019600020D0FE2B1CD825F813108E4601330132EF
:101970000D2AF0D10278520604D5FE2B10D8002291
:1019800025F81320013CE4B200213046FFF740FD6A
:1019900005460028AAD00023B3610CE0A342C9D0B9
:1019A000FF24F1E74945E2D0FAE73CB9FFF7CAF86E
:1019B000B84203D100252846BDE8F8834FF0FF3335
:1019C000F362F8E70425E6E75E9701082DE9F74F93
:1019D0000646D0F800B0894611F8013B2F2BFAD00B
:1019E0005C2BF8D00021B16099F800301F2B00F279
:1019F000AF808023304686F82B3003B0BDE8F04F2F
:101A0000FFF7C5BC0134B6E0B4F5807F00930CD07D
:101A1000012100F0A7FC40B17F28009B07D87F4937
:101A200011F8012B1AB19042FAD106204DE0274659
:101A300028F8020F95E035F81730202B02D02E2B16
:101A400040F0A980013FA3E00131B0E0434505D259
:101A5000BA4249D1B8F10B0F3FD102E0B8F10B0FF8
:101A600036D144F003044FF00B0896F82030E52BF4
:101A700004BF052386F82030B8F1080F04BFAD007D
:101A8000EDB205F00C030C2B03D005F00302032A82
:101A900001D144F00204A10709D405F00305012D8A
:101AA00008BF44F01004042B08BF44F0080430467B
:101AB00086F82B40FFF722FD96F82B30C0B30428A0
:101AC00003D113F0040F08BF052003B0BDE8F08F69
:101AD000BA4202D044F00304C7D8AD003A464FF0F2
:101AE0000B080823EDB287E07F280ED9002144F0CF
:101AF0000204CDE9002300F035FCDDE9002360B1EC
:101B00004749084410F8800C38B1DFF818C11CF8B8
:101B1000011B002974D08142F9D144F003045F20F5
:101B2000F118013381F8200066E045F00205F7E77F
:101B30005A07CAD4B379DB0660D531690BF1340397
:101B40009BF80000C1F308011944FFF732FBB060B5
:101B500033680027D3F80CA009F1FF33AAF102057E
:101B6000A84613F8010F7C1C1F280CD92F2802D07F
:101B70005C287FF449AF19F804302F2B3FF442AFB3
:101B80005C2B3FF43FAF2028A14434BF0424002441
:101B9000002F7FF450AF00232AF81730002F3FF4B6
:101BA00044AF20210B227018FEF79EFF19463AF829
:101BB0001130202B3FF448AF2E2B3FF445AF09B135
:101BC00044F0030435F817302E2B01D0013FF9D132
:101BD00000234FF008081D463AF811004A1C00285F
:101BE0003FF443AF202805D02E287FF42FAFBA4210
:101BF0003FF430AF44F003041146EDE7052064E7FD
:101C0000A0F14101192990D9A0F1610119299EBFC4
:101C1000203845F0010580B282E700BFCE9601086A
:101C2000DE960108D79601081FB5CDE9001003A87C
:101C300014460391FEF795FF031E15DB0C4A52F87C
:101C4000231009B100200870019808B1002101702B
:101C500042F8230030B1012C08D1002201A96846C6
:101C6000FFF7B2F804B010BD0B20FBE70020F9E746
:101C7000140400242DE9F04190B017460446019168
:101C8000002800F0D48002F03F0603A901A83246E4
:101C9000FFF79AF8054600284FD1039B04A8019945
:101CA0000493FFF793FE20B99DF93B30002BB8BF9A
:101CB000062017F01C0F00F09A80002844D004285A
:101CC0003BD104A8FFF7CAFC002836D146F008062D
:101CD00006F09AFB0146009020220B980E30FEF78A
:101CE000FBFE0B9800991630FEF7F6FE0B9BDDF815
:101CF0000C80DA720B9998F80000FFF75AFA00226C
:101D000007464046FEF712FF0B9B002201211A777F
:101D10005A779A77DA77039BD970F7B1394604A8D6
:101D2000D3F83080FFF7A3FA38B941460398FEF79D
:101D3000F8FF013F039B1F6178B100230546236034
:101D4000284610B0BDE8F0819DF8163013F0110F51
:101D500057D1780765D43907BAD4039F31070B9957
:101D60003B6B48BF46F04006616223623878FFF75C
:101D700020FAA06001F11C000021FEF7ABFEFB88F9
:101D8000276004F12C074FF40072E060A16238462E
:101D9000A38026746174E1616161FEF7A5FEB2065D
:101DA000CED5D4F80C80B8F1000FC9D0039BA16840
:101DB0005E89C4F814807602464524D30020A161D0
:101DC0000028BAD1C8F30803002BB9D0039E3046CF
:101DD000FEF790FE48B300EB582201233946E2613A
:101DE0007078FEF74DFE0028AAD00120A5E7002854
:101DF000A3D19DF81630DA0615D4BF07ADD5D807A4
:101E0000ABD5072099E72068A8EB0608FFF7D9F9BA
:101E10000128014603D9431CCED10120CFE702207F
:101E2000CDE7082089E7042087E7022085E7092518
:101E300086E72DE9F04F87B01646894604460193A0
:101E40000023019A05A91360FEF7A8FE054618BBFA
:101E5000657C0DBB237C13F00103029300F0998095
:101E6000E26804F12C0A6369D21A964228BF16462A
:101E700096B16169C1F30803002B7CD1059BB3F8CF
:101E80000A8008F1FF3818EA51281BD141B9A0682F
:101E9000012810D802256574284607B0BDE8F08FE8
:101EA000A36A1BB12046FEF730FEF1E7A169206866
:101EB000FFF787F9ECE7431C03D10123029D63740C
:101EC000EAE7A061DDF814B0A1695846FEF712FEFA
:101ED0000028DFD0B6F5007F08EB00072ED3BBF853
:101EE0000A2008EB5621730A9BF8010091424946EB
:101EF00088BFA2EB08033A460393FEF7C1FD002812
:101F0000DBD194F91020039B002A0BDAE069C01B97
:101F1000984207D24FF40072514609EB4020FEF779
:101F2000CBFE039B5F026369B944019AF61B3B44F5
:101F30006361019B1B683B44136099E7E269BA4205
:101F400018D094F91030002B0BDA012351469BF87E
:101F50000100FEF7A3FD0028AFD1237C03F07F032F
:101F60002374059801233A4651464078FEF788FDD0
:101F70000028A2D1E76161694846C1F30801C1F5B3
:101F800000775144B74228BF37463A46FEF794FEE1
:101F9000C9E7072580E7F7B501A90546FEF7FEFD6D
:101FA000044600283BD12B7C13F0400437D01B069D
:101FB0000CD501980123EA6905F12C014078FEF760
:101FC0006DFD78BB2B7C03F07F032B7406F01CFAAD
:101FD000296A07460198FEF7A4FE0446F8B96E6A1E
:101FE000F37A314643F02003F372AA682868FEF7BB
:101FF0009DFDE96806F11C00FEF76EFD394606F10D
:102000001600FEF769FD01230198B474F474C370DF
:10201000FFF784F82B7C044623F040032B74204602
:1020200003B0F0BD0124FAE713B50446FFF7B3FF90
:1020300028B901A92046FEF7B1FD00B9206002B021
:1020400010BD2DE9F04F85B00D46044603A9FEF7FB
:10205000A5FD0646E8B9667CDEB9A36A002B7BD0F5
:102060006A1C39D11D46D4F80880022755F804BBF4
:10207000B8F1000F28D040464FF0000A01468146D3
:1020800020680AF1010AFFF79CF8012807D8022608
:102090006674304605B0BDE8F08F8046EBE7431C20
:1020A00001D10126F4E709F101098145E6D00237A3
:1020B000BB4521BF2B4643F808ABC5F804801D463D
:1020C000039B9B698342E8D8A36A5F451F6000F2C7
:1020D000C38000232B60DCE7E768AF4228BF2F46B0
:1020E0006761002FD5D07D1E20462946FEF70DFDE5
:1020F000DDF80C800146A0614046FEF7FBFC00289D
:10210000C5D0C7F30807002FC3D0B8F80A10E2699A
:10211000013901EA55210D18AA42BAD094F91030BC
:1021200004F12C01002B0CDA012398F80100019135
:10213000FEF7B4FC0028B4D1237C019903F07F039F
:102140002374039801232A464078FEF799FC06463B
:102150000028A6D1E5619CE7E368AB4204D2227C6B
:1021600012F0020F08BF1D46002263696261EDB9DB
:102170000025E2686369934284BF227CE360C3F375
:10218000080384BF42F040022274002B81D0E26930
:10219000AA423FF47EAF94F9103004F12C01002BD9
:1021A000CFDA0398012301914078C1E7039A578958
:1021B0007F020BB3013B6A1EB3FBF7F1B2FBF7F2F0
:1021C0008A4219D37A42A1691340ED1A636100294A
:1021D000CED0BD4263691ED863692B446361C5F3E9
:1021E0000803002BC4D00398FEF784FC00283FF4BA
:1021F0004EAF00EB5525BCE7A16851B92046FFF76B
:102200006EF8012801463FF442AF481C3FF449AF45
:10221000A160A161DBE73B44A5EB07086361237C78
:102220009A0706D52046FFF75AF8054628B9014611
:10223000D2E72068FEF7C5FF05466B1C3FF431AFBF
:10224000012D7FF624AF039B9B69AB427FF61FAF46
:102250002946A5614546BCE711261AE71FB5044685
:10226000019150B3002203A901A8FEF7ADFD70B99A
:10227000039B204601992360FFF7A8FBF8B994F966
:102280002B30002B0CDBA379DB0603D405200023C5
:10229000236010E0039BE1691878FEF78AFFA060D5
:1022A000039B00212046DB88A380FFF770F80428F9
:1022B000ECD00028EBD104B010BD0920FBE70428C6
:1022C000E4D0E4E713B501A90446FEF767FC00B9C2
:1022D000206002B010BD73B50D4601A90446FEF79B
:1022E0005DFC20B92DB901462046FFF750F802B039
:1022F00070BD2046FFF7F0FA10F0FB06F7D1294633
:102300002046FEF765FC31462046FFF781F8042899
:1023100008BF0020EBE700000F4B30B59C7B012C81
:1023200017D89D7B0024EDB25C559D7B03EB8505A2
:102330006860987B184402739A7B501C3032C0B29C
:1023400098733A2320460A704B702F23CC708B7001
:1023500030BD0120FCE700BF200600240022FFF76B
:10236000DBBF00007F2810B506D931B1FF2812D895
:1023700080380A4B33F8100010BD084A32F8024B7F
:102380008BB2844203D001318029F7D10B4603F18F
:102390008000C0B2F0E70020EEE700BF6C970108B4
:1023A0001E4B1F4AB0F5805F28BF134670B5191D3C
:1023B00031F8043C0A46ABB1984213D331F8024CD1
:1023C000250AE6B253FA84F4A04221DA082D09D88E
:1023D000DFE805F005090F11131517191B00C01AC6
:1023E00031F8100070BDC31A03F00103C01A80B2A7
:1023F000F8E71038FBE72038F9E73038F7E71A3804
:10240000F5E70830F3E75038F1E7A0F5E350EEE7E1
:102410000431002DCCD102EB4603C8E76C980108CB
:102420005E9A010870477047704770477047704761
:1024300070477047402070478020704710B50446B1
:102440004FF4826116F073F9204610BD036870B531
:102450000E46DB68044615469847B04205D8236807
:102460002046DB689847013886B223682046A6805C
:102470009B689847A84205D8236820469B689847E0
:10248000013885B2E58070BD1FB500238DF80D10B1
:1024900003AA01798DF80C304FF47A73009302236C
:1024A00004F0F2F805B05DF804FB70B50D46064681
:1024B000FDF716FF04462846FDF712FF8442024648
:1024C00008D3241A2946301916F078FBB0FA80F0A8
:1024D000400970BD0020FCE77FB5022301A88DF8FC
:1024E000003000238DF80130009903F0C1F9042376
:1024F000012205480DEB030103F0C8F9024803F07F
:10250000A9FB07B05DF804FBF05200240021044849
:1025100008B503F0B5FBF7EE007A37EEC00A08BD48
:10252000F052002470B588B0044601A880E80E007F
:10253000D4F86031D4F86421013B9B1ADB06F7D054
:1025400005AB0B2507C803C323F8022B120C1A7026
:1025500005AAD4F864315D43013303CA661903F058
:102560001F0360517160118892783181B272C4F892
:10257000643108B070BD00001FB504238DF806005B
:1025800006488DF8043001238DF8053004AB13E9BB
:102590000E00FFF7C7FF05B05DF804FB300600240E
:1025A0001FB505238DF806008DF807108DF804304F
:1025B000012305488DF8053004AB13E90E00FFF741
:1025C000B1FF05B05DF804FB300600241FB5002301
:1025D00006488DF8043001238DF8053004AB13E96B
:1025E0000E00FFF79FFF05B05DF804FB30060024E6
:1025F000002A1FB58DF804100DDA03238DF805307D
:1026000004AB8DF80600054813E90E00FFF78AFFBA
:1026100005B05DF804FBFBD00223EFE73006002491
:1026200000291FB58DF804000BDA03238DF805305F
:1026300004AB054813E90E00FFF774FF05B05DF821
:1026400004FBFBD00223F1E7300600241FB504236E
:102650008DF8040005488DF8053004AB13E90E0031
:10266000FFF760FF05B05DF804FB00BF30060024F3
:102670001FB505238DF806008DF807108DF804307E
:1026800004238DF808208DF8053004AB034813E9C6
:102690000E00FFF747FF05B05DF804FB300600248D
:1026A0001FB504238DF8060008488DF80430012377
:1026B0008DF8053010EE103ACDF80A3004AB13E96E
:1026C0000E00FFF72FFF05B05DF804FB980700240C
:1026D0001FB50523ADF8060006488DF80430012328
:1026E0008DF8053004AB13E90E00FFF71BFF05B0B2
:1026F0005DF804FB980700241FB5002308488DF8F7
:10270000043001238DF8053010EE103ACDF8063074
:1027100004AB13E90E00FFF705FF05B05DF804FBFD
:102720009807002400F1080300F581604A4203F88D
:10273000012B8342FAD17047083008B5FFF7F2FF4A
:1027400008BDF0B5044685B0C71DB0252946204612
:10275000FFF79AFE3E4600212046FFF795FE102126
:102760002046FFF791FE402303AA217920468DF8E9
:102770000C3016F8013F8DF80D304FF47A7300934A
:10278000022303F081FF07F180039E42EBD1013564
:10279000EDB2B82D01D105B0F0BD3746D6E708300F
:1027A00008B5FFF7CEFF08BD002300EB0111184666
:1027B00011F9012B002ABCBF01229A4003F1010349
:1027C000BCBF104380B2102BF2D170470000000054
:1027D0002DE9F043C24F15460C46C24ED7F864317E
:1027E000D7F860219B1A13F01F0F2DED028B85B0D7
:1027F00023D0D7F860010B2343430130FA5C07EB89
:10280000030E00F01F00042A9EF801309EF802100B
:102810009EF803C0C7F860019EF804E040F0CE8047
:10282000012B0AD1B04B4FF49E6202FB013191F9AA
:10283000EC0491EDD30AFFF733FF3378002B00F05F
:10284000B081FFF763FEB0EE408A0026AE4200F092
:10285000B58123680022B700DFF8989203EB860366
:102860004FF000081A60636803EB86031A6019F8DA
:10287000011B89B19D4A00234FF4847109F8013C82
:1028800002F5805393F880304B43D11803EB0813C3
:10289000D1F800111344595C4FF49E63924803FB36
:1028A00008000B0605D501F07F01019001F090FBB7
:1028B000019801F0FDFB2268636808F101083A44C1
:1028C0008DED020A3B44CDED030AD2ED007AB8F15A
:1028D000100F37EE800A82ED000AD3ED007A77EE12
:1028E000A00AC3ED000AC2D1D2ED007A804867EE9B
:1028F000887AC2ED007AD3ED007A67EE887AC3ED6C
:10290000007A15F0E5FE002856D0DFF8E0814FF49C
:10291000847208F5805797F8803002FB0382D2F862
:10292000001101310F29C2F8001181BF012182F885
:1029300005110021C2F800114FF48471002201FB3F
:10294000038191F8050181F80521B0B111468C464B
:1029500001314FF4847E581800F00F000EFB008008
:1029600090F8040120B101330246634403F00F03E1
:102970001029ECD10AB187F88030102201215D487E
:1029800016F03AF997F880304FF4847202FB038313
:10299000D3F80031002B0FDB01279F40564BBFB20D
:1029A0001F80564B1868564B02FB00801968FFF7D2
:1029B000FBFE3843FFF78CFE013647E7052A14D1AA
:1029C000012B40F0AF804D4B4FF48470C3F800C032
:1029D0004B4B1960454B00FB0C30FFF7E5FE464BB7
:1029E0001B881843FFF774FE27E742B9012B7FF4D9
:1029F00024AF444B93ED250AFFF77EFE1DE7062A20
:102A000015D19A1E012A3FF618AF4FF49E62364F39
:102A1000022B02FB01770CBF01214FF0FF3138463A
:102A200001F0EAFA97F9EC0497EDD30A03E7072AD5
:102A300013D19A1E012A3FF600AF4FF49E622A4F2F
:102A4000022B9FED310A02FB01770CBF01214FF0F1
:102A5000FF31384601F004FBE4E7012A40F08880AA
:102A60009A1E012A3FF6E9AE264F022B9FED277AE8
:102A7000D7ED257A0CBF01234FF0FF33F4EEC77A70
:102A8000B7EE007AF1EE10FA42D5012B40D177EE85
:102A9000877AC7ED257A97ED256A1548B7EEC66A9D
:102AA0009FED0B5B85EE067BB1EE006B27EE067BA0
:102AB0009FED096B27EE067BB7EE006B86EE070BEA
:102AC000B7EEC00B15F01EFE97ED250A94E700BF88
:102AD0000000000000004E40000000000000B03F79
:102AE00030060024685600246C56002470A500248B
:102AF000F4B5002409B600241CB600240009002403
:102B00000409002470B500240AD7233C00C079448E
:102B1000F4EEC77AF1EE10FAD6DD0133D4D177EEB8
:102B2000C77AB6E7042B7FF488AE4FF48473264A45
:102B30004FF484700F0103FB0CF300FB0CF003EB6C
:102B40000113134413F80E8013F90E30002B07EB1A
:102B5000000310441344ACBF48F0800808F07F081D
:102B600003F80E80194BC3F800C0194B196034E705
:102B7000022A7FF462AE042B7FF45FAE337800222A
:102B80004FF4847083F001033370124B1A800F4BA3
:102B90001A680F4B19680C4B00FB0230FFF704FE5C
:102BA00020E7AB420AD02268002102EB83021160C9
:102BB000626802EB830201331160F2E705B0BDECFD
:102BC000028BBDE8F08300BF70A50024000900243B
:102BD000040900241CB6002484B038B505AD0446B1
:102BE00085E80E009DF828302946037103F0B6FCF5
:102BF0002046AE21FFF748FC2046D521FFF744FCD4
:102C000020468021FFF740FC2046A821FFF73CFC2E
:102C100020463F21FFF738FC2046DA21FFF734FC3D
:102C200020461221FFF730FC2046D321FFF72CFC71
:102C300020460021FFF728FC20464021FFF724FC16
:102C40002046A621FFF720FC2046A421FFF71CFC0C
:102C500020468D21FFF718FC20461421FFF714FCB5
:102C60002046A121FFF710FC2046C821FFF70CFCED
:102C700020468121FFF708FC20468F21FFF704FC46
:102C80002046D921FFF700FC20462521FFF7FCFB59
:102C90002046DB21FFF7F8FB20463421FFF7F4FB49
:102CA0002046AF21FFF7F0FBBDE8384004B0704785
:102CB0007F2910B510D83F2A0ED8D40802F0070299
:102CC00001EBC4110124084404FA02F290F908103F
:102CD00052B213B11143017210BD21EA0201FAE7A9
:102CE000083008B5FFF7E4FF08BD2DE9F04F0E46A8
:102CF00085B0044604A9A6F120059DF838B001E985
:102D00000C00EBB25E2B04D90026304605B0BDE8BE
:102D1000F08F03689DF80870DB689DF809A098475C
:102D2000A3883B449842EFDB236820469B68984782
:102D3000E38853449842E7DB0AFB05F54FF00009AE
:102D40006D00CA451DD9039B4FF000085B5B0193E2
:102D50004745A188E28810D9019B41444A4404F1C7
:102D6000080003FA08F308F101081B044CBF5B4696
:102D70008BF00103FFF79CFFEAE709F10109023537
:102D8000DFE7A1882046E288394489B2FFF75EFB7D
:102D9000BBE7F0B585B006464C1E02AD9DF8287025
:102DA00085E80C0014F8011F41B10097304695E802
:102DB0000C00FFF79AFF21788842F3D0084605B04F
:102DC000F0BD2DE9F043914685B00446984608468B
:102DD0004B46DDE90C52A3EB090C13F8011B00294B
:102DE000F9D198F8006098F8011016FB0CF60F4620
:102DF00036B226EAE676082A76D8DFE802F06B05D6
:102E0000270B35453C536100B5F90020B5F9023078
:102E1000228053E02B88A988B5F902200B446280F8
:102E20009B1B2380A680E780628821880390FFF7A0
:102E30000DFB9DF8383049460398009398E80C0044
:102E4000FFF7A7FF204605B0BDE8F083B5F90430D1
:102E5000B5F9021003EBD3722B88618003EB620398
:102E6000A3EB66032380DDE76B88B5F90020ED88CE
:102E70002B445B1ACCE76B88EA8813445B1A2A88D8
:102E8000A9880A44921BC3E76B88EA8813445B1A3B
:102E9000B5F9042002EBD2712A8802EB6102A2EBA1
:102EA0006602B5E7B5F90630B5F9001003EBD37249
:102EB0006B88218003EB6203A3EB57036380B1E7C8
:102EC000B5F9063003EBD3726B8803EB6203A3EB17
:102ED0005103D4E7B5F9063003EBD3726B8803EBEB
:102EE0006203A3EB5103D3E7002323806380A38015
:102EF000E38099E7F0B522488DB001F0FDF901219A
:102F00001F48002401F028FA1E4B1F4F06ADCDE9E3
:102F10000643022307F10806CDE9083410238DF893
:102F200028303C238DF82C300CAB13E907008DE8DA
:102F30000700304695E80E00FFF74EFE30460121AF
:102F4000FFF7F0FB224621463846FFF77FFA802341
:102F50000E4A3946ADF8143040232846ADF81040EB
:102F6000ADF8163004ABADF812400093084BCDE934
:102F70000144FFF726FF3046FFF7E3FB0DB0F0BD3D
:102F80001056002401080109380900241A9B010881
:102F90008C0100242DE9F0470021C44801250024BC
:102FA000C34E2DED028B98B001F082FAFFF794FA30
:102FB000032305A9BF488DF81C40CDE9053504F071
:102FC00005FA2946BC4805F0FBF92A46BB4DBC4929
:102FD000BC482F46FEF728FEBB49BC48FFF73EF928
:102FE0000134314628464FF4001200F0E7FF102C60
:102FF00005F59E6506F58006F2D1B54CB34821462D
:10300000FFF769F9A67D002E40F00281AF484FF02E
:103010000109FFF757F90421A448002701F0C4F97A
:103020000321A248BA4601F09FF9AA499F48B84631
:1030300001F096F9A84CFFF75DFFA84800F068FD85
:10304000A74801F059F9994801F0AAF9A548F0EE0E
:10305000400A84F80491B2EE000A04F5805415F099
:1030600025FBA14B00209FEDA18AC4F89430FFF707
:1030700083FA00213D463C460846FFF791FA9748FF
:1030800000F02CFE03A8954900F0DEFD9DF80C0031
:103090009DF80D209DF80E309DF80F60002C40F03B
:1030A0004D81042840F0D980012B0AD1012A40F03B
:1030B000E08030463546FFF75FFA21463046FFF79D
:1030C0006FFA8B4BD3F86421D3F86011521AD206F1
:1030D00000F06881D3F860214FF00B0E08AE0EFBB4
:1030E00002FE013203EB0E0C53F80E0002F01F0239
:1030F000DCF8041003C6BCF808009CF80A10308005
:1031000013F80E00B1700428DCF806609CF801107A
:10311000C3F8602140F03681012903D19DF9228056
:1031200008EE106A002C40F04F81214671488DF85E
:103130005F40FFF7F7FA23462A466F4908A815F0C3
:1031400053FE224621466D48FFF780F96C4E01235D
:1031500008A96A48009396E80C00FFF71AFE1522AA
:1031600066482146FFF772F9664A08A8234602EB33
:10317000852212F8011B11B12E2940F01A8160330B
:1031800000226B4403F8402C012308A95B480093FC
:1031900096E80C00FFF7FDFDB8F1000F00F010817C
:1031A000C0F210815223BDEEC87ADFED576A019359
:1031B00088EAE873554908A8F8EEC77AA3EBE873E4
:1031C00017EE102ADBB278EE677A009367EEA67AE4
:1031D000F6EEE77AFDEEE77A17EE903A15F004FE88
:1031E0002A2200214548FFF731F9012308A9434865
:1031F000009396E80C00FFF7CCFD3E48FFF7A1FADC
:103200003946434801F0A8F8414801F060F8CDE0A4
:10321000404904F11600404DFFF747F9C0B1237A49
:1032200013F0160F14D12E2E12D02B684FF49E607F
:1032300004F1160100FB037000F05FFF2B683148BA
:1032400004F116015A1C00EB83202A6015F0ECFDF6
:103250002B680F2B7FF7D1AED8E6012863D1E6B9F2
:10326000042B0CD14FF0FF3207212846FFF7C0F99D
:1032700027E7324621462846FFF7FAF921E7032BD4
:1032800001D10246F0E7012B7FF41BAF012A7FF446
:1032900018AF0224FFF79AF913E7012E7FF411AF5C
:1032A000042B3BD14FF0FF320621DEE7D852002439
:1032B000000000C06CA50024604E00246C56002461
:1032C000219B0108644E0024CC52002408090024EC
:1032D000480D0024D127000870A5002414530024B1
:1032E00020B60024F4B500240000F04200000000E5
:1032F0009807002440090024289B0108380900246D
:1033000094010024600E00240000C842379B01088D
:1033100010560024239B010864560024032B7FF4DD
:10332000D0AE3246C0E7022805D1012B7FF4C9AEEA
:10333000FFF78CF9C5E60328F7D0C2E6022C1FD1AF
:1033400001287FF4BEAE002E7FF4BBAE042B04D167
:103350004FF0FF31FFF764F9B3E6032B01D10146CB
:10336000F8E7012B7FF4ADAE012A7FF4AAAE284620
:103370003446FFF701F931462846FFF711F9A0E678
:1033800001249EE628B901297FF4CCAEDDF822A005
:10339000C8E605287FF4C6AE01297FF4C3AEBDF8A8
:1033A0002270BFE6B9F1000F7FF4BCAE4FF0000908
:1033B00065E6013300F8011B3F2B7FF4DAAEE3E64C
:1033C0004323F0E64C23EEE6022CEFD100210F4818
:1033D000FFF7A8F9172200210D48FFF737F807EE8D
:1033E00090AA0C4908A8FDEEE77A17EE902A15F08E
:1033F000FBFC0122084B08A9009205480CCBFFF703
:10340000C8FC0248FFF79DF90021FAE640090024B4
:1034100038090024529B01088401002400000000A8
:103420002DE9F04F2DED068B87B01C4603929DF8D9
:103430006030DDE916289FEDB64BB8F1000F04931C
:10344000BCBF4244C8F1000807EE902A02EB080313
:10345000B8EEE76B07EE103A9FEDAF5B26EE046B1C
:10346000B8EEC77BCDE9010186EE050B27EE047BA4
:10347000F7EEC08B87EE050BF7EEC09BB0EE680A47
:1034800015F05AF907EE904AB8EE67AA2AEE008ABC
:10349000B0EE680A15F04CFA60EE4A8AB0EE690A9E
:1034A00015F04AF92AEE009AB0EE690A15F040FAD2
:1034B00020EE4AAA39EE487A049B7AEE687A67EEE3
:1034C000A77AE7EE077AB0EE007AF4EEC77AF1EE6B
:1034D00010FA08D5B8F1B40F00F3CA8007B0BDECFC
:1034E000068BBDE8F08F002201276542C4F101047C
:1034F0000026BB46BA466400B9460492049A002AE4
:103500006ED107EE906A7242B8F1B40FF8EEE76A36
:1035100007EE905AB8EEE77A07EE902AC5F100025E
:1035200066EE884AF8EEE77A06EE102A27EE285A69
:1035300066EE896AB8EEC66A67EE885A27EE0A7A9E
:1035400066EE283A67EE897A26EE0A6A34EEE34A96
:1035500074EEC54A35EEC55AB5EEC04A75EEE35A6B
:1035600040F39180F1EE10FA00F1848036EEC64A05
:10357000B5EEC04AF1EE10FACCBF4FF001094FF0A2
:103580000009F5EEC04AF1EE10FA76D476EEC76A7D
:10359000F5EEC06AF1EE10FACCBF4FF0010A4FF021
:1035A000000AB5EEC05AF1EE10FA69D437EEC77AC8
:1035B000B5EEC07AF1EE10FACCBF4FF0010B4FF030
:1035C000000BF5EEC05AF1EE10FA00F19B8077EE99
:1035D000C67AF5EEC07AF1EE10FACCBF01270027CB
:1035E000B9F1000F09D0039A02990198B218491B4A
:1035F00005930830FFF75CFB059BBAF1000F09D07B
:10360000039A02990198B218691805930830FFF7D8
:103610004FFB059BBBF1000F09D0039A029901985B
:10362000921B691805930830FFF742FB059B4FB1C9
:10363000039A02990198921B491B05930830FFF7E2
:1036400037FB059BA6425FDB013604EB4602EE42E8
:1036500002F1010202D1A54202DB0024A54255DAA3
:10366000013502EB4502541C002D7FF747AF35E7CB
:10367000012239E74FF0010983E74FF0010A90E793
:103680004FF0010B9DE7F1EE10FA32D536EEC64A47
:10369000B5EEC04AF1EE10FACCBF4FF001094FF081
:1036A0000009F5EEC04AF1EE10FA25D576EEC76AAC
:1036B000F5EEC06AF1EE10FACCBF4FF0010A4FF000
:1036C000000AB5EEC05AF1EE10FA18D537EEC77AF7
:1036D000B5EEC07AF1EE10FACCBF4FF0010B4FF00F
:1036E000000BF5EEC05AF1EE10FA3FF570AF00276F
:1036F00076E7DDF81090D4E74FF0000AE1E74FF0ED
:10370000000BEEE701276BE72246A7E71446ABE77D
:103710007A008BFCFA21094000000000008066401E
:103720002DE9F04F1F4685B014460830DDF838A06B
:10373000A7EB01089DF83C300D46AAEB0209B8F151
:10374000000F0393B8BFC8F10008B9F1000F029051
:10375000B8BFC9F1000992458CBF01224FF0FF327A
:103760008F428CBF4FF0010B4FF0FF3B3946019267
:103770005246FFF79DFAA8EB0906DDE90203BD42B8
:1037800001D1544516D02946224603930290FFF7F3
:103790008FFAC9F100017200B1EB460FBCBFA6EB76
:1037A00009065D449045DDE90203E8DD019A4644DF
:1037B0001444E4E705B0BDE8F08F2DE9F3479DF828
:1037C00030C005460C4616461F46DDF828809DF899
:1037D0002C90BCF1000F10D0A7422AD3B246D0459E
:1037E00009D352464B46214605F108000AF1010A69
:1037F000FFF75EFAF3E70134EEE7CDE90029FFF7C2
:103800008FFF3B46324639462846CDE90089FFF70F
:1038100087FF2346424639462846CDE90089FFF70F
:103820007FFF2346424621462846CDE90069FFF73F
:1038300077FF02B0BDE8F087F8B563480024634A1B
:1038400010266349046014F06DFF62485F4A04600B
:1038500044610462604C614914F064FF4FF07C5392
:103860000025CC225E49C4F84C334FF07E5304F55A
:103870005570C4F85033C4E9035515F0AFF904F599
:103880008460CC22574915F0A9F9013E84F8EC5424
:1038900004F59E6404F8035CE0D1534B10244FF40C
:1038A00080721846642115F0A7F90022013C00F54A
:1038B0008473C0F8002180F80421F0D14B4D00231F
:1038C00021461022C5F8943005F1990085F8804012
:1038D00085F8984015F090F93C4A4549A5F5805087
:1038E00014F020FF394A4349434814F01BFF434B6F
:1038F000C3F8A84003F1B00204240B250021FF20E7
:1039000002F13C07157115763D4D507105F1100C13
:10391000116150765162C2E90211C2E907112868AB
:10392000083555F8041C3E46654503C63746F6D1B2
:10393000013C02F14C02E0D1082702264FF60B753C
:103940004FF08042C3F88042C3F8A042C3F8B842A7
:103950002C492A48C3E9BD24C3E9A674C3E9AA6572
:10396000C3E9AC44194A14F0DDFE2748174A274939
:10397000046004628463A0F84040C0E90674C0E9B2
:103980000A65C0E90C4414F0CDFE214B21480F4AD2
:1039900003602149846014F0C5FE20480B4A1B498E
:1039A000046004628463A0F84040C0E90674C0E982
:1039B0000A65C0E90C4414F0B5FE044A18491948D8
:1039C000BDE8F84014F0AEBE64B600240000002448
:1039D00025240008D85200246C560024292400080D
:1039E000F4940108C095010870A5002470B5002466
:1039F0002F2400082B2400085456002414530024BC
:103A00008C9601083124000820B600242D240008DB
:103A1000649B010838090024332400081056002450
:103A2000272400086CA5002430B589B00025044681
:103A30000430ADF814100599ADF810202A46ADF801
:103A40000C300123009502F023FA2A46049904F170
:103A500018000123009502F01BFA9DF80D309DF827
:103A60000C2004F12C008DF81D308DF81C209FEDEA
:103A7000040A079901F0B4FE2570658009B030BDD5
:103A8000000000002C3001F0C5BE034690F8300065
:103A900028B193F83600A0F17F035842584170478F
:103AA000034690F8300028B193F83600A0F1800367
:103AB00058425841704710B5037804469B0000F8FF
:103AC000043B02F0CBFA18B1237843F002032370D1
:103AD00004F1180002F0C2FA18B1237843F0010390
:103AE0002370237803F00F03E218237092F93C004F
:103AF00050B1608843EA00139BB26380DBB22B2B8A
:103B000003D0173B5842584110BD4FF0FF30FBE740
:103B100070B5044686B000F5F07000F043FB3D4AF6
:103B20003D493E4856784D7813780A78017843EA43
:103B30000623407842EA052241EA002104F1B00060
:103B4000FFF772FF364A3749374856784D78137871
:103B50000A78017843EA0623407842EA052241EADE
:103B6000002104F1FC00FFF75FFF304A3049314883
:103B700056784D7813780A78017843EA062340781E
:103B800042EA052241EA002104F5A470FFF74CFF48
:103B9000294A2A492A4856784D7813780A780178B4
:103BA00043EA0623407842EA0522012541EA002142
:103BB00004F5CA70FFF738FF0F238DF80C5004F599
:103BC00031708DF80D309FED1F0A03998DED010ABC
:103BD00001F006FE0E238DF810509DED010A04F54C
:103BE00035708DF811300025049901F0F9FD02239C
:103BF0008DF8145004F539708DF815309DED010ADB
:103C0000059901F0EDFDC4F8A450C4F8A05006B029
:103C100070BD00BFA89B0108A49B0108A69B0108DA
:103C2000AE9B0108AA9B0108AC9B0108A29B01085E
:103C30009E9B0108A09B01089C9B0108989B010882
:103C40009A9B010800000000D1F8A430D1F8A02010
:103C50009B1A13F01F0310B515D0D1F8A430D1F87A
:103C6000A0209B1ADB06F8D0D1F8A03003EB83022A
:103C700001338C188A5803F01F0302602279C1F8BF
:103C8000A030027110BD03600371FBE7F7B502AB12
:103C900003E90600D0F8A030D0F8A420013B9B1A1D
:103CA000DB06F7D0D0F8A4309DF8017003EB830158
:103CB00001339DF8026042189DF803509DF80440BE
:103CC00003F01F039DF800C000F801C05770967004
:103CD000D5701471C0F8A43003B0F0BD2DE9F347DE
:103CE000044600F5357001F095FD04F5F07704F514
:103CF000397001F08FFD04F5317001F08BFD38460D
:103D000000F0A6FA94F8D8324BB194F8DE32802B4A
:103D100000F09E8094F8DE327F2B00F0B98094F89A
:103D2000E8324BB194F8EE32802B00F0CD8094F85D
:103D3000EE327F2B00F0E98004F1100825464FF0A9
:103D4000FF39A5EB040A38465FFA8AF6314600F0DF
:103D50006DFA95F82032002818BFD1464BB195F87E
:103D600030327F2B00F0ED8095F83032802B00F060
:103D7000098101354545E4D1002604F1B0053746F7
:103D800028465FFA86F8FFF796FE00B394F8CE3225
:103D9000FF2B00F01181B9F1FF3F16BF0223002372
:103DA000474601284FF001018DF8013002AB0CBFEE
:103DB000032204228DF8001020468DF802208DF891
:103DC00003808DF8047013E90600FFF75FFF2846B3
:103DD000FFF758FE2846FFF758FEB0B194F8CE32F0
:103DE00001228DF803802046A3F1FF018DF8002009
:103DF0008DF802204B428DF804704B418DF8013054
:103E000002AB13E90600FFF741FF2846FFF748FE23
:103E1000B8B194F8CE3220468DF80380A3F1FF02AA
:103E20008DF804705342534101228DF80130022372
:103E30008DF800208DF8023002AB13E90600FFF781
:103E400025FF01364C35042E9AD102B0BDE8F0872B
:103E500094F8CE3202222046A3F1FF0A8DF800200A
:103E60008DF80220DAF1000343EB0A038DF80130EC
:103E700000238DF803308DF8043002AB13E90600FF
:103E8000FFF704FF94F8D832002B7FF443AF46E7E6
:103E900094F8CE3202222046A3F1FF098DF80020CB
:103EA000D9F1000343EB09038DF8013001238DF8AC
:103EB000023000238DF803308DF8043002AB13E993
:103EC0000600FFF7E3FE2AE794F8CE3203222046ED
:103ED000A3F1FF088DF80020D8F1000343EB08039D
:103EE0008DF8013002238DF8023000238DF8033065
:103EF0008DF8043002AB13E90600FFF7C7FE94F813
:103F0000E832002B7FF413AF16E794F8CE32032289
:103F10002046A3F1FF0E8DF80020DEF1000343EBF5
:103F20000E038DF8013001238DF8023000238DF847
:103F300003308DF8043002AB13E90600FFF7A6FE4C
:103F4000FAE694F8CE3204228DF803602046A3F1FD
:103F5000FF0C8DF80020DCF1000343EB0C038DF81F
:103F6000013001238DF8023000238DF8043002ABBC
:103F700013E90600FFF78AFE95F82032002B7FF444
:103F8000F3AEF6E694F8CE3204228DF80360A3F186
:103F9000FF008DF800204342434120468DF8013058
:103FA00002238DF8023000238DF8043002AB13E9B0
:103FB0000600FFF76BFEDCE60123F2E600238161D9
:103FC0000260436083600375C0E9033270470000FC
:103FD00001F07F01DFED076A012307EE901A0375F8
:103FE000F8EEE77AC368836087EEA67A80EDD47A2C
:103FF000704700BF0000FE424B1C08D190F9EC3422
:1040000013F1310F02DB013B80F8EC3470470129DA
:10401000FCD190F9EC34312BF8DC0133F4E70000EB
:10402000037D53B1D0E90123934202D20269934246
:1040300006D300230375C36883609FED080A7047A9
:104040008269591CD0EDD37A32F91330816000EEC9
:10405000103ABAEEE80A20EE270A70470000000086
:1040600000290DDDB7EE007AD0EDD37AF4EEC77AF1
:10407000F1EE10FA03D537EE800A80EDD30A7047CF
:10408000FDD0B7EEC06AD0EDD37A9FED074BB7EE07
:10409000E75A36EE046BB4EEC65BF1EE10FAEEDDD5
:1040A00037EEC00AE9E700BF000000000000000092
:1040B0001FB5FFF7B5FF044690F9EC04002811DAAC
:1040C0006FF0030303FB004404F58463D4EDD50AC9
:1040D000D3ED007A60EE277A60EE200AB0EE670A30
:1040E00004B010BD04EB8004D4EDD57A04F58464EB
:1040F00060EE277AD4ED000AEEE7F0B506460F46EB
:104100008DB0002156F81C2B0546806914F074FD13
:10411000012239463046FDF7ADFD10B101200DB04A
:10412000F0BD6B462C2201A93046FDF782FE002827
:10413000F4D1079A4BF680339A422ED1BDF826303F
:10414000102B2AD12B680B9A9A4228D8BDF81A3026
:10415000012B24D185F848032C213046FDF771FF4F
:104160000028DBD16B460B9AA9693046FDF761FE4A
:1041700004460028D2D1BDF82630394605F5127024
:10418000DA08009BB3FBF2F36B602B6114F04CFE7A
:104190003046FDF749FF2046C1E70220BFE7032074
:1041A000BDE700002DE9FF410446061F00F140076E
:1041B00000F13C0804F0D8F9002546F8040F464504
:1041C00007F8015BFD73F5D1154A04F1A401154B05
:1041D00004F1A000C4F8B450C4F8AC50C4F8C45002
:1041E000C4F8C850C4E929230823C4E92F55C4F8EA
:1041F000B83003F073FF0C4B04F1CC0001225C7863
:1042000019782B46009541EA0421039001F040FE05
:104210000121039804B0BDE8F04101F02BBF00BFBD
:10422000060B010401050BFFB09B0108072997BF8E
:1042300090F8E03090F8E13043FA01F101F001002C
:1042400082BF01F0070043FA00F000F00100704760
:10425000F8B500F1CC050446002100262846271FAA
:1042600001F008FF012004F083F92846012104F140
:10427000400501F0FFFE6423022204F1E00104F195
:10428000A00003F0BBFF04F06FF9002305F8013B29
:1042900057F8043F834216D001233860F1B220461C
:1042A00005F8013CFFF7C2FFEB7B40EA4300C0B2D8
:1042B0007F28E87307D104F057F907EE900AF8EE6B
:1042C000677AC7ED187A0136102EDCD1F8BD38B503
:1042D00000F12C0504460021284601F0CBFE04F134
:1042E000400164232046022203F07EFF284601217C
:1042F000BDE8384001F0BEBE7FB5144A0025144B1E
:10430000011D45610446C56045628562C0E901231F
:104310000823C0E90755836103F0E0FE0D4B04F16B
:104320002C0001225E7819782B46009541EA06217F
:10433000039001F0ADFD0398012101F09BFE2046A2
:1043400004B0BDE87040FFF7C2BF00BF060B010418
:1043500001050BFFB29B010849BAA0F84010704755
:10436000143001F009BA00BF38B500F11405044655
:104370002DED028B284601F0BBF9284601F0B4F977
:104380002846B0EE408A01F09DF9D0ED007AF8EEB3
:10439000677A88EE277ABDEC028B84ED0E7A38BD01
:1043A000143001F0A1B900BF38B500F1140504467E
:1043B0002DED028B284601F089F9284601F094F989
:1043C0002846B0EE408A01F07DF9D0ED007AF8EE93
:1043D000677A88EE277ABDEC028B84ED0E7A38BDC1
:1043E000F0B5032399B000270125129306462C4B04
:1043F00009A81595CDE90E7340F20453ADF840308D
:10440000284BCDE91357099301F03EFE09A801F0AE
:1044100017FF002836D1244B04AF04460090CDF896
:1044200042301023394604958DF820301F4BCDE9DA
:104430001650CDE906506846059302F08FF8082320
:10444000009A01A909A8ADF804508DF80640099416
:104450000295039300F0E4F800230EA938463024B7
:10446000049302F045FE03224FF07E5309A906F1A2
:1044700014000B930C93CDE90942049A01F0EAF879
:1044800019B0F0BD40F60132074B169704AFADF8F6
:1044900024200998CDF84230179500F081F8DBE729
:1044A0000402040403030001040604030704010BCF
:1044B0002DE9F04304462DED028B83B0002948D04E
:1044C000012140F2011200230091ADF804208DF883
:1044D0000630304A0126304B271D304904F12908A7
:1044E000626040F20272A36040F60663E16004F18C
:1044F00025092682A4F8252084F82760A4F829300D
:1045000084F82B6004F0A6F96946054648B304F127
:1045100030008DF8066004F0FBF8072D34D104F16B
:1045200014052046FFF75CFF284601F0DDF8284619
:10453000B0EE408A01F0C6F8D0ED007AF8EE677A66
:1045400088EE277A84ED0E7A03B0BDEC028BBDE8CD
:10455000F08340F2011300918DF80610ADF804309D
:10456000B7E704F1300004F0D3F83946204602F0F2
:104570003FFA484601F088FD404601F085FD04F110
:10458000120000F077F9CAE73946204602F030FA07
:10459000C5E700BF0508050905070506050A060663
:1045A00010B584B003460124ADF8040003A8ADF8AB
:1045B0000C30ADF80E4001F067FD214603A801F074
:1045C0004DFE204603F0D2FF002103A801F046FE75
:1045D000204603F0CBFF214603A801F03FFE04B0C4
:1045E00010BD00BF10B5C2F3002384B00C46017C9F
:1045F0008DF80D2043EA4402FA2402238DF80C20A2
:1046000003AA009402F040F818B10124204604B037
:1046100010BD04460A2003F0A9FF204604B010BDD7
:10462000034670B543F8042B044684B007C983E8F9
:104630000700A37983B91A210B461E22FA25237499
:104640002046ADF80C20022303AA009502F01CF8C6
:1046500028B1012004B070BD1B210B46EDE70A20F4
:1046600003F084FF4FF4B85200950223ADF80C20FC
:10467000204603AA217C02F007F80028E9D10A208D
:1046800003F074FF41F2027200950223ADF80C2092
:10469000204603AA217C01F0F7FF0028D9D10A2087
:1046A00003F064FF042200950223ADF80C2020469D
:1046B00003AA217C01F0E8FF0028CAD10A2003F0F8
:1046C00055FF062200950223ADF80C20204603AAD0
:1046D000217C01F0D9FF0028BBD10A2003F046FF5E
:1046E00041F2082200950223ADF80C20204603AACF
:1046F000217C01F0C9FF0028ABD10A20064603F057
:1047000035FF0095022303AA217C2046ADF80C60FA
:1047100001F0BAFF00289CD1304603F027FF009536
:1047200022790C232046002A8DF80C3003AA4FF082
:10473000020314BF622142218DF80D10217C01F08B
:10474000A3FF002885D1304603F010FF2279D4E979
:1047500002310B43DBB20AB943F0400362790AB17C
:1047600043F020030E22FA258DF80D3020460095E7
:1047700002238DF80C2003AA217C01F085FF00287C
:104780007FF467AF0A2003F0F1FE102200950223A8
:10479000ADF80C20204603AA217C01F075FF00280B
:1047A0007FF457AF0A2003F0E1FE122100950223A7
:1047B000ADF80C1003AA217C204601F065FF00280B
:1047C0007FF447AF0A2003F0D1FE012209212046E1
:1047D000FFF708FF003818BF01203BE7F0B51023B2
:1047E00087B0234C012200250126002702A920467C
:1047F0000195CDE902234FF48052CDE904670CF016
:1048000055F8642004F09CFD02A94FF48052204624
:10481000CDE9046702261027CDE902670CF046F8BF
:104820000322102302A92046CDE9022300230422FB
:10483000CDE904234FF480520CF038F840F23223D3
:10484000042202A9019310232046CDE90223019AF4
:10485000012305924FF4805204930CF027F840F6A0
:10486000060120460CF042F8284607B0F0BD00BF14
:1048700070B600241C4B00221C494FF0400C30B590
:10488000054689B00220596007219A601A62012406
:10489000DA620A224FF4006EDC6006922022CDE933
:1048A000000104200821CDE9020103201021CDE9F7
:1048B000040108206946C3E904024FF4C072181DC0
:1048C000C3E906C24FF48052C3E909E20BF0C4FF0A
:1048D00038B92846FFF782FF003818BF012009B019
:1048E00030BD204609B030BD6CB6002440410052B6
:1048F000614A0021D0B513688EB00A91002B40F0B8
:10490000B9805E4B01214FF683700C2411600221A7
:10491000D3F8D4200026032742F48052C3F8D420D1
:10492000D3F8D42002F480520092009AD3F8E02009
:1049300042F01002C3F8E020D3F8E02002F01002A9
:104940000192019AD3F8E02042F04002C3F8E0203F
:10495000D3F8E02002F040020292029AD3F8E0205D
:1049600042F00802C3F8E020D3F8E02002F0080289
:104970000392039AD3F8E02042F48072C3F8E02057
:10498000D3F8E02002F480720492049AD3F8E02075
:1049900042F08002C3F8E020D3F8E02002F0800269
:1049A0000592059AD3F8E02042F02002C3F8E020F7
:1049B000D3F8E02002F020020692069AD3F8E02015
:1049C00042F00402C3F8E020D3F8E0300C9403F086
:1049D000040307930323079A0B93CDE9080108A961
:1049E000274806F033FB48F23712022308A925486E
:1049F0000C94CDE90823CDE90A6706F027FB4CF2B9
:104A00000372022308A920480C94CDE90823CDE9BC
:104A10000A6706F01BFB40F2FF62022308A91B484D
:104A20000C94CDE90823CDE90A6706F00FFB4FF699
:104A30000C72022308A916480C94CDE90823CDE98D
:104A40000A6706F003FB4FF63F02022308A911484C
:104A50000C94CDE90823CDE90A6706F0F7FA202285
:104A6000022308A90A480C94CDE90A67CDE9082376
:104A700006F0ECFA0EB0D0BD68B60024004402582F
:104A80000010025800180258000C0258002002586A
:104A9000001C0258001402582DE9F04FDFF8108472
:104AA00006460D46144608F118002DED028B89B01C
:104AB00000AF02F015FCD8F8183073B3D8F81C30EA
:104AC000D8F80490002B43690BBF4FF0080A4FF051
:104AD000100A4FF0020B4FF0040BB9F1000F2AD06F
:104AE000A200EA46012B02F1070222F00702ADEB19
:104AF000020D6846ADEB020D694600F03F81022BC6
:104B000000F0D680002B6FD02246C847D546243708
:104B1000BD46BDEC028BBDE8F08FD8F81C30002BF1
:104B2000F5D0D8F804904FF0080A4FF0020B436913
:104B3000B9F1000FD4D1FB61D8F80030BB61002B74
:104B4000E5D0D54802F03EFC6B46BBF1020F786120
:104B500008EE103AFB6900F083816A465146A2EBE9
:104B6000C40295466200EA46B2FBFBF2AAEBC4001F
:104B700085460AEB8200EE46F861ADEB010DF8695F
:104B80000EEB820CC7F810C0EC46ADEB010D00EB4C
:104B90008201CCF80400CCF8081001EB82013869DE
:104BA000E946CCF80C1000EB8201CCF800A001EB38
:104BB0008202C9E900E0C9E90212012B00F0648316
:104BC000022B00F06C82002B00F0808162084946C5
:104BD0006046BB69984718EE103A24379D46BD469B
:104BE000BDEC028BBDE8F08F002C8DD01A46D8EDBD
:104BF0000C6A9FEDB27A8446331D36F922E00CF13F
:104C0000080C07EE90EA33F922E00232F8EEE77A78
:104C1000944267EE877A67EEA67A4CED027A07EE49
:104C200090EAF8EEE77A67EE877A67EEA67A4CEDBF
:104C3000017AE2D8F9612246C847984ED8ED0D6A4C
:104C40000020F9692B1D9FED9E7A9FED9E6ADFED96
:104C50009E5A22E0F4EEC67AF1EE10FAC0F2C88451
:104C600047F6FE72D1ED017A45F8202066EEA77A6C
:104C7000F4EEC77AF1EE10FA40F2F080F4EEC67A64
:104C8000F1EE10FAC0F2D58447F6FE7243F8202008
:104C90000230083184427FF639AFD1ED007A66EEFA
:104CA000A77AF4EEC77AF1EE10FAD3D83246D9E7F4
:104CB000002C3FF429AFD8ED0C6A84469FED787A3A
:104CC0000022331D8E4656F822100CF1080C07EE18
:104CD000901A53F822100232F8EEE77A944267EE07
:104CE000877A67EEA67A4CED027A07EE901AF8EE14
:104CF000E77A67EE877A67EEA67A4CED017AE2D81A
:104D000071462246C7F81CE0C847664ED8ED0D6ACA
:104D10000020F9692B1D9FED6A7A9FED6A6ADFF822
:104D200094C120E0F4EEC67AF1EE10FAC0F2798474
:104D30003246D1ED017A45F8202066EEA77AF4EEEE
:104D4000C77AF1EE10FA40F28780F4EEC67AF1EEFF
:104D500010FAC0F25E84324643F820200230083157
:104D600084427FF6D3AED1ED007A66EEA77AF4EEF8
:104D7000C77AF1EE10FAD5D86246DAE7002C3FF494
:104D8000C3AED8ED0C6A86469FED477A4FF0000C13
:104D9000331D56F82C200EF1080E82F40002A2F505
:104DA000000207EE902A53F82C200CF1020CF8EECA
:104DB000E77A82F400026445A2F5000267EE877A82
:104DC00067EEA67A4EED027A07EE902AF8EEE77AC1
:104DD00067EE877A67EEA67A4EED017AD9D8F96147
:104DE0002246C847314ED8ED0D6A0020F9692B1DC7
:104DF0009FED337A9FED336ADFF8BCC01FE0F4EE1D
:104E0000C67AF1EE10FAC0F2FC833246D1ED017A97
:104E100045F8202066EEA77AF4EEC77AF1EE10FA94
:104E200018D9F4EEC67AF1EE10FAC0F2DA833246FF
:104E300043F820200230083184427FF667AED1ED7E
:104E4000007A66EEA77AF4EEC77AF1EE10FAD6D8B9
:104E50006246DBE76246EBE762467DE7324615E7EE
:104E6000A100D6466208073121F00701ADEB010D24
:104E7000EA46ADEB010D6946ADEB0E0D0AEB820083
:104E8000EC46ADEB0E0D01EB8202F861E946CCE990
:104E900000A0C9E9001290E6C0B600240280FFFF1E
:104EA000000000300082FF7F0000003482FF7F009E
:104EB000A4B60024007E00807E0080FF0000003841
:104EC00004FF7FBF04FF7F3F00FEFF46002C00F081
:104ED000C982BBF1020FD8F8242000F0FA82796968
:104EE000C7F8049002EB810E5FED0C5A8A00DCF8E3
:104EF00008100EF104007A611A46DCF80C303B61B0
:104F0000331DD7F810903D61FD69C7E902CB8C468F
:104F1000834636F92210D8ED0C7A06EE101A33F9D2
:104F2000221006EE901A3EF92210B8EEC66A07EE7D
:104F3000101AF8EEE66A3BF92210B8EEC77A26EEB0
:104F4000256A66EEA56A27EE257A26EE276A66EEC2
:104F5000A76A27EE277A07EE901A51080232F8EE78
:104F6000E77A0AEB8100944280ED006A05EB81004C
:104F700067EEA57AC0ED006A0CEB810009EB8101B8
:104F800080ED007A98ED0C7A67EE877AC1ED007AB1
:104F9000BFD8D7F804903D69D7E902CB60466208D4
:104FA000BB6949469847D8F82C307A69D8ED0D6A24
:104FB0001A441FED3D7A1FED3D6A2B1D904602F10C
:104FC000040A5FED3F5A0022A84ED9E900EC51E0F7
:104FD000F4EEC67AF1EE10FAC0F2C78247F6FE7020
:104FE00045F822000CEB0100D0ED007A66EEA77ABE
:104FF000F4EEC77AF1EE10FA4BD9F4EEC67AF1EE80
:1050000010FAC0F2BA8247F6FE70BBF1020F43F805
:1050100022002BD0D9F808000844D0ED007A66EEC3
:10502000A77AF4EEC77AF1EE10FA36D9F4EEC67A22
:10503000F1EE10FAC0F2CD8247F6FE7048F8220079
:10504000D9F80C000144D1ED007A66EEA77AF4EEAF
:10505000C77AF1EE10FA1ED9F4EEC67AF1EE10FA24
:10506000C0F2AF8247F6FE714AF822100232944233
:105070007FF6B1AD51080EEB81008900D0ED007ACA
:1050800066EEA77AF4EEC77AF1EE10FAA0D83046B1
:10509000A6E73046B9E73146E6E73046CEE7002CD2
:1050A00000F0E081BBF1020FD8F8243000F0E1817C
:1050B0007A69DCF8081003EB820EC7F804909300BD
:1050C000DFED6B5A0EF1040000227B61DCF80C303E
:1050D0003B61331DD7F810903D61FD69C7E902CBF4
:1050E0008C46834656F82210D8ED0C7A07EE101A3B
:1050F00053F82210B8EEC76A07EE101A5EF82210B5
:10510000F8EEC76A07EE101A26EE256A5BF8221041
:10511000B8EEC77A66EEA56A26EE276A27EE257AEC
:1051200066EEA76A27EE277A07EE901A5108023238
:10513000F8EEE77A0AEB8100944280ED006A05EB15
:10514000810067EEA57AC0ED006A0CEB810009EBE7
:10515000810180ED007A98ED0C7A67EE877AC1EDD7
:10516000007ABFD8D7F804903D69D7E902CB6046F2
:105170006208BB6949469847D8F82C307A69D8ED5F
:105180000D6A1A449FED3E7A9FED3E6A131D9246CA
:10519000DFF8E4C00022FB612B1D364ED9E9008EFA
:1051A0004EE0F4EEC67AF1EE10FAC0F2FC81304621
:1051B00045F822000EEB0100D0ED007A66EEA77AEA
:1051C000F4EEC77AF1EE10FA49D9F4EEC67AF1EEB0
:1051D00010FAC0F2EF813046BBF1020F43F8220013
:1051E0002AD0D9F808000844D0ED007A66EEA77AF4
:1051F000F4EEC77AF1EE10FA35D9F4EEC67AF1EE94
:1052000010FAC0F2C98130464AF82200D9F80C00E1
:105210000144D1ED007A66EEA77AF4EEC77AF1EE9A
:1052200010FA1ED9F4EEC67AF1EE10FAC0F2AD8192
:105230003146F86940F82210023294427FF6CBAC36
:10524000510808EB81008900D0ED007A66EEA77A5C
:10525000F4EEC77AF1EE10FAA3D86046A8E76046EC
:10526000BAE76146E5E76046CEE700BF0280FFFF90
:10527000000000300082FF7F007E008000000034CC
:1052800004FF7FBF04FF7F3F002C00F0EB807A69B2
:105290000021D8F82430C7F8109003EB820ED7F81D
:1052A0001C909300FD610EF104021FED0C6A7B61FE
:1052B000331D154656F821204808D8ED0C6ABBF17D
:1052C000020F82F40002A2F5000207EE902A53F8C2
:1052D000212082F40002B8EEE77AA2F5000227EE60
:1052E000067A07EE902A0AEB8002F8EEE77A27EEBC
:1052F000267A67EE867A82ED007A09EB80024FEA21
:10530000800067EEA67AC2ED007A27D05EF82120F1
:1053100082F40002A2F5000207EE902A55F821203F
:1053200082F40002B8EEE77AA2F5000227EE067AD0
:1053300007EE902ADCF80820F8EEE77A024427EE20
:10534000267A67EE867A82ED007A98ED0C7ADCF8A0
:105350000C2067EE877A0244C2ED007A02318C425B
:10536000A8D8D7F8109060466208BB694946FD6925
:105370009847D8F82C307A69D8ED0D6A1A441FED99
:10538000407A1FED406A131D9246DFF8C4C2002226
:10539000FB612B1DAB4ED9E9008E4EE0F4EEC67AD0
:1053A000F1EE10FAC0F2C580304645F822000EEB4F
:1053B0000100D0ED007A66EEA77AF4EEC77AF1EE3E
:1053C00010FA49D9F4EEC67AF1EE10FAC0F2BF80B5
:1053D0003046BBF1020F43F822002AD0D9F808006A
:1053E0000844D0ED007A66EEA77AF4EEC77AF1EEC3
:1053F00010FA35D9F4EEC67AF1EE10FAC0F2AE80AA
:1054000030464AF82200D9F80C000144D1ED007A68
:1054100066EEA77AF4EEC77AF1EE10FA1ED9F4EE32
:10542000C67AF1EE10FAC0F28B803146F86940F886
:105430002210023294427FF6CEAB510808EB810075
:105440008900D0ED007A66EEA77AF4EEC77AF1EE25
:1054500010FAA3D86046A8E76046BAE76146E5E7D8
:105460006046CEE7224649466046BB699847FFF74B
:10547000B2BBC7F810B0002298ED0C6A331DDFED07
:10548000726AD7F81CB0786956F8221007EE901AA5
:1054900053F82210B8EEE77A07EE901A510802325C
:1054A000F8EEE77A27EE267A0AEB810E94420BEBB0
:1054B000810167EEA67A27EE067A67EE867A8EED90
:1054C000007AC1ED007ADFD88300D7F810B07B6195
:1054D0004DE61A46C7F810B098ED0C6A331DDFEDA3
:1054E0005B6AD7F81CB0786936F9221007EE101AFB
:1054F00033F9221007EE901AB8EEC77A510802323B
:10550000F8EEE77A27EE267A0AEB810E94420BEB4F
:10551000810167EEA67A27EE067A67EE867A8EED2F
:10552000007AC1ED007ADFD88300D7F810B07B6134
:1055300034E5F0EE675AFEEEE45A15EE900A34E7D1
:10554000F0EE675AFEEEE45A15EE901A6EE7F0EEB2
:10555000675AFEEEE45A15EE900A3AE7F0EE675A03
:10556000FEEEE45A15EE900A4BE767EEA57AFDEEE3
:10557000E77A17EE900A00B232E567EEA57AFDEE03
:10558000E77A17EE900A00B23FE5F0EE675AFEEEBA
:10559000E05A15EE901A4CE6F0EE675AFEEEE05A2D
:1055A00015EE900A30E6F0EE675AFEEEE05A15EE80
:1055B000900AFDE5F0EE675AFEEEE05A15EE900A0D
:1055C0000AE667EEA57AFDEEE77A17EE901A09B2C1
:1055D0004AE567EEA57AFDEEE77A17EE900A00B28B
:1055E0002CE5F0EE675AFEEEE45A15EE902A1FE421
:1055F00067EEA57AFDEEE77A17EE902A12B2FFF772
:1056000031BBF0EE675AFEEEE45A15EE902AFFF732
:10561000FDBBF0EE675AFEEEE05A15EE902AFFF75A
:105620009BBBF0EE675AFEEEE05A15EE902AFFF7AC
:1056300080BB67EEA57AFDEEE77A17EE902A12B2EC
:10564000FFF724BB82FF7F0000000030000000381D
:105650007E0080FF30B5184C154685B0046004F11B
:10566000080EEC460FC98EE80F00D4ED047AF5EE73
:10567000C07A8CE80F00F1EE10FA1ADDB7EE006A7E
:1056800094ED057A27EE277AC6EE276A84ED0D7A27
:10569000C4ED0C6A6DB1204640F8185F01F020FEA1
:1056A000064903690020064A2162A262E36005B050
:1056B00030BD012005B030BDA4B60024002000306C
:1056C0000000003000680830704700BFB1F5807FEF
:1056D00003680A4628BF4FF48072B1F5807F9A6054
:1056E00094BF0020012070470068183001F058BEB8
:1056F00070B504688AB0A369E160CBB104F1180504
:10570000284601F0EDFD8446EE46E668BCE80F0051
:10571000AEE80F00BCE80F00AEE80F009CE8030005
:105720008EE8030069462846049601F0E1FCF8B9CA
:10573000E069D8B104F11C05284601F0D1FD84468A
:10574000EE46E468BCE80F00AEE80F00BCE80F00CE
:10575000AEE80F009CE803008EE803006946284687
:10576000049401F0C5FC003818BF01200AB070BDD8
:1057700001200AB070BD00BF30B5046883B00D468B
:10578000E3694BB1A3680020E26A616A9B00009064
:1057900004F11C0001F0A6FDA3680748A26A9B0063
:1057A000216A009004F1180001F09CFD0020C4E97A
:1057B000005003B030BD00BF994A000810B4074B39
:1057C0004FF07E5130240022032019619C60D86084
:1057D0005DF8044B5961C3E906227047A4B6002462
:1057E00070B5044682B0C1F30726CDB2ADF80410FF
:1057F00002F0BAFE4FF480724FF001232060A01D2A
:10580000A571A280E671A36002B0BDE8704000F00F
:105810003BBC00BF38B5044602F0A6FE0022236858
:105820002271834210D00122A57AE37A954020604C
:105830002271A01D6DB243B900F002FD40B22843B1
:10584000C0B27F28A0720AD038BD00F0F9FCB0FACF
:1058500080F040092843C0B27F28A072F4D102F042
:1058600083FE07EE900AF8EE677AC4ED037A38BD3E
:1058700082B04FF0000C0323ADF80410BDF80420F3
:1058800080F810C00280438002B070472DE9F04FCD
:10589000BE4E00258FB0BE4C037006F1400342603F
:1058A000074601928846202229463046C4F85831DE
:1058B000C4F85461CDE90355CDE90555CDE9075547
:1058C000CDE90955CDE90B5513F096F9202229466B
:1058D00004F59970C4F82151C4F82551C4F8295130
:1058E000C4F82D5113F088F9019B84F8385284F8DC
:1058F00020317A68002A5FD02B464146B64604F52F
:10590000907599464FF0010A03EB0310D1F800B0EF
:10591000D1F804800133D1F808C02218CE6844F8C9
:1059200000B0C2F80480C2F808C0D660087C2EF827
:10593000029B10740A7C05F8012F002A69D07A684E
:10594000113184F838A29A42DED84FF4802291486F
:105950009DF8043008214FF000084FF00009C4F80A
:1059600074310023C4E957020122C4F8643184F879
:105970007031C4E95A2194F83812C4E9608981B3BE
:10598000C4F88821002284F8713184F878313B789A
:10599000C4E96322A3B3012200200121013B84F862
:1059A0009421C4E96801082B2CD8DFE803F0ABB0E0
:1059B000B5BABFC4C9CFD6009DF804300121C4F8E0
:1059C0006421C4F874314FF4802384F87021714A43
:1059D000C4E9572308230022C4E95A130023C4E969
:1059E00060230123002284F87131002384F8783188
:1059F0000323C4F888313B78C4E96322002BCAD161
:105A000084F89431644804F0D3F8034638B1FFBEFB
:105A1000FEE77A6811319A423FF676AF95E703A91F
:105A20005D48039304F022FA0546002868D102225B
:105A300040F2FF73CDE9082300230422CDE90A23B5
:105A400094F82031002B00F0D5804FF0060921E0BA
:105A5000022B00F08980012B40F0C4809AF80130BD
:105A6000012B00F0C180002B4C4B18BF002306A96E
:105A70004948CDE9063903F0C7FC002840F0BF8053
:105A8000013594F82031EDB2AB4240F2B380444B83
:105A900053F825902FB207EB071704EB070A50467F
:105AA00000F0F2FA05EB051323441B7C042B7DDC8C
:105AB000022B00F3918000F08D806319002283F89F
:105AC0001021E35D002BC3D19AF80130062B00F0C2
:105AD0008580072B00F08A80022B00F09680032B34
